:020000040800F2
:1000000000200020DD010008E5010008E9010008EA
:1000100000000000000000000000000000000000E0
:1000200000000000000000000000000005020008C1
:100030000000000000000000090200080D02000896
:100040001502000815020008150200081502000834
:100050001502000815020008150200081502000824
:100060001502000815020008150200081502000814
:10007000150200081502000815020008E90A000828
:100080001502000815020008000000001502000813
:1000900015020008150200081502000815020008E4
:1000A00015020008150200081502000815020008D4
:1000B0001502000800000000150200080000000002
:1000C0005FF808F130B583B000F0C4F8314B324A24
:1000D0001360324A1360324B324A03E011681960F0
:1000E0000433043230498B42F8D32B4B1A682F4B20
:1000F0009A4204D1294B1A682D4B9A4200D0FEE750
:10010000244B2C4A13602C4A13602C4B02E0002233
:100110001A6004332A4A9342F9D3264B1B68002BFA
:1001200003D1254B1B68002B00D0FEE700F096F8AA
:1001300001A8694600F086F8224C234B1C1BA41032
:10014000002504E0AA001F4BD35898470135AC4264
:10015000F8DC1E4C1E4B1C1BA410002504E0AA005A
:100160001A4BD35898470135AC42F8DC01980099F6
:1001700000F0A2FA051C174C174B1C1BA41004E03E
:10018000013CA200134BD3589847002CF8DC281CE4
:1001900000F056F8BABADECA0000002024000020A1
:1001A000000000201C0F00082800002078563412A0
:1001B00032547698280000205000002028000020AB
:1001C00054000020400200084002000840020008DD
:1001D00040020008400200084002000808B5FFF78E
:1001E00071FFC04600BEFEE704207146084202D0FF
:1001F000EFF3098001E0EFF308807146044A1047ED
:1002000000BEFEE700BEFEE700BEFEE7704700004E
:080210000102000800BEFEE738
:100218001C0F000800000020280000201C0F000808
:10022800000000000000000028000020540000200A
:080238000000000000000000BE
:10024000FEE7C04601230360014B0B607047C046C8
:100250000400002008B500F05DF808BD08B500F006
:100260008BF808BD82B0002301930093264A1368DF
:10027000802149020B431360234B1A6880239B02A1
:1002800013400093019B01330193009B002B04D189
:10029000019AA023DB019A42EED11B4B1B689B0302
:1002A00002D50123009301E000230093009B012B62
:1002B00028D11122154B1A60134B5A685A605A689C
:1002C0005A605968124A0A405A605A68882149039C
:1002D0000A435A601A68802149040A431A600A4B8B
:1002E0001B689B01FBD5084B5A6803218A435A605F
:1002F000596802220A435A60034B5B680C22134080
:10030000082BF9D102B070470010024000200240D3
:10031000FF7FC0FF08B5124B1A6801210A431A601B
:100320005868104A02405A6018680F4A02401A6022
:1003300018680E4A02401A6058680D4A02405A6016
:10034000DA6A0F208243DA62186B0A4A02401A63A3
:100350005A6B8A435A6300229A60FFF783FF08BDF5
:10036000001002400CB8FF08FFFFF6FEFFFFFBFF86
:10037000FFFFC0FFACFEFFFF10B51E4B5B680C22F9
:100380001340042B07D0082B09D0002B22D11A4A86
:100390001A4B1A6021E0184A184B1A601DE0154BE1
:1003A0005C68A4025A68240F0234C0235B021A421C
:1003B00004D113484443114B1C600EE00D4BDB6A23
:1003C0000F21194001310C4800F016FD44430B4B3E
:1003D0001C6002E0084A094B1A60064B5B681B066A
:1003E0001B0F084AD35CDBB2044A1168D940116084
:1003F00010BDC0460010024000127A001C00002010
:1004000000093D000C00002082B00023019343004E
:10041000181804E0C046C046019B01330193019BBC
:100420008342F7D302B0704710B51420FFF7ECFFFA
:10043000084CA369802212061343A3611420FFF71E
:10044000E3FFA369802212021343A3611420FFF784
:10045000DBFF10BD0008004810B5041C012906D1BF
:100460004A4A93698021C9010B43936107E000293F
:1004700005D1464A93698021C9050B43936163B254
:10048000002B07DA9022D2059369802109020B43E1
:10049000936106E09022D2059369802109060B43FF
:1004A0009361630607D59022D205936980214901A3
:1004B0000B43936106E09022D205936980214905A0
:1004C0000B439361A30606D5314A936980218900C5
:1004D0000B43936105E02E4A9369802189040B4305
:1004E0009361E30606D52A4A9369802149000B43AC
:1004F000936105E0264A9369802149040B43936187
:10050000FFF792FF230707D59022D2059369802138
:1005100009020B43936106E09022D2059369802182
:1005200009060B439361630707D59022D2059369AF
:10053000802149010B43936106E09022D205936923
:10054000802149050B439361A30706D5104A93699F
:10055000802189000B43936105E00D4A9369802156
:1005600089040B439361E30706D5094A9369802107
:1005700049000B43936105E0054A936980214904D2
:100580000B439361FFF750FF10BDC04600080048C1
:100590000004004808B50021FFF75EFF0148FFF79F
:1005A00033FF08BDB80B000038B52248FFF72CFF19
:1005B000214B5A69802109030A435A615A698025EF
:1005C000ED022A435A615A69802189020A435A611D
:1005D0001A4B1A68802149050A431A60186880245A
:1005E000E40520431860164B18688022520210431D
:1005F00018601968294319609023DB051968802267
:100600005204114319601A6822431A603320FFF71D
:10061000C1FF3320FFF7BEFF3220FFF7BBFF0C20E6
:10062000FFF7B8FF2820FFF7B5FF0120FFF7B2FF63
:1006300038BDC04630750000001002400008004878
:100640000004004802280AD003280FD0012810D146
:100650001322084B1A702832074B1A7009E0112236
:10066000044B1A702832044B1A7002E00122034B2B
:100670001A70704720000020210000203000002068
:1006800008B5022808D003280BD001280DD1074B4C
:100690001878FFF7D7FF08E0054B1878FFF7D2FF6F
:1006A00003E0044B1878FFF7CDFF08BD4C00002095
:1006B000440000203C000020F0B55F4656464D4601
:1006C0004446F0B4BF4CA54400F018FA00F046FAD6
:1006D000F020400013210022002300F08DFAFFF7E4
:1006E00063FF082000F016FB96204001FA21490024
:1006F00000F05CFB0026002305930493039300277E
:1007000009930893079398460133019304E000236B
:100710000593049301330393012F03D1AA4B9C8CBF
:10072000E4B202E000F0ECFA041C782C10D0632C48
:1007300011D0702C11D0732C11D0742C11D06E2CC0
:1007400013D0692C14D0642C15D06F2C18D115E05F
:100750000026002714E0012612E0022610E00127FF
:100760000EE00027012301930AE00023029307E033
:100770000123029304E00223029301E00323029386
:10078000012E10D0002E02D0022E10D0C4E78F4AC6
:10079000938AFF218B439382002000F083FA282064
:1007A00000F080FAB8E7201C00F07CFAB4E7002FD4
:1007B00002D0012F37D0AFE7002000F073FA2820D5
:1007C00000F070FA039B012B06D1814B6A46127A26
:1007D0001A700023039312E0049B012B06D17D4B7A
:1007E0006A46127A1A700023049308E0059B012BD5
:1007F00005D1794B6A46127A1A7000230593672C4B
:1008000004D0722C83D0622C86D106E0002305939D
:1008100001330493002303937EE701230593002310
:100820000493039378E7019B012B1FD16B4A9168D6
:1008300003330B439360694B1B685B07FBD5674B26
:100840001B6C664B1B685B07FBD5644B1B6C634BD7
:100850001B685B07FBD5614B1B6C06935F4B1B68EA
:100860005B07FBD55D4B1B6C002301935C4B1B7836
:10087000012B10D100225A4B1A7043460133DBB2D0
:100880009846032B02D0042B03D804E00423984697
:1008900001E0012398464D4B9A8A07218A439A82A8
:1008A0009A8A41460A439A824C4A916804230B4330
:1008B00093604A4B1B685B07FBD5484B1B6C9A4601
:1008C000464B1B685B07FBD5444B1B6C9946434B5F
:1008D0001B685B07FBD5414B1B6C404B1B685B07E0
:1008E000FBD53E4B1A6C3F4B1A604346022B0FD090
:1008F000042B1AD0012B2DD1111C07988300D2AAEA
:100900009950031E622B1DD80133DBB2079321E0FF
:10091000344B1968089883006EAA9950031E622B05
:1009200013D80133DBB2089314E02E4B1A680999EF
:100930008B000AA81A500B1E622B09D80133DBB2B8
:10094000099307E00023079304E00023089301E0E4
:100950000023099300230024002500200BE09A00C7
:10096000D2A9515840186EA951586D180AA9525869
:10097000A4180133DBB2622BF1D9642100F03CFAF8
:100980008346194B1860281C642100F035FA051CB9
:10099000164B1860201C642100F02EFA144B1860CE
:1009A0004B235B4592415142AB42924152420A4035
:1009B00083429B415B4213421ED004220D4B1A70AE
:1009C00042E0C04624FBFFFF00380140000400481D
:1009D0004C000020440000203C0000200024014086
:1009E000450000203800002034000020480000208E
:1009F000400000204D000020402100231A1C5C46CE
:100A0000A1425A411C1CA9425C41224081425B41E7
:100A1000DBB21A4203D005222F4B1A7014E0AB450B
:100A200005D9834503D901222B4B1A700CE0AB4545
:100A300005D2854203D90222274B1A7004E0834570
:100A400002D20322244B1A70244B1B78012B20D195
:100A5000069B5B08534501D9002400E00124994519
:100A600001D2002500E00125002D06D1272000F04D
:100A700019F93B2000F016F925E0194B187800F021
:100A800011F9184B187800F00DF90022134B1A7069
:100A900019E0069B5D08554505D9114B187800F003
:100AA00001F9002403E0002000F0FCF80124A9452E
:100AB00005D20C4B187800F0F5F8002503E028204B
:100AC00000F0F0F801252B1C234300D024E6024B54
:100AD0001878FFF7D5FD1FE64D00002030000020FC
:100AE000200000202100002008B500F07FF901223D
:100AF000014B1A7008BDC04645000020154A5369D5
:100B00008021C9020B435361134B196801220A4328
:100B10001A60196804220A431A60196810220A43ED
:100B20001A60196840220A431A601A688021490035
:100B30000A431A601A688021C9000A431A601A68B9
:100B4000802149010A431A601A688021C9010A43B9
:100B50001A607047001002400004004808B5204B9E
:100B60009A698021C9010A439A615A6980218902E0
:100B70000A435A611B4B19681B4A0A401A601968DC
:100B80001A4A0A401A609023DB051A68802109037B
:100B90000A431A601A68802189030A431A60596A55
:100BA00010220A435A625A6A802149000A435A6253
:100BB000FFF7E2FB0E4B18689621890100F01CF943
:100BC00080B20C4B9881196801220A431A60196897
:100BD00004220A431A60196808220A431A6008BDF1
:100BE0000010024000040048FFFFF3FFFFFFCFFFAB
:100BF0001C0000200038014070B5254CE669022534
:100C00003543E56165698026F60235436561214C0F
:100C10002668214D354025602668204D35402560E9
:100C200025688026B6003543256025688026360174
:100C300035432560256A8026760235432562256A7C
:100C40008026760335432562154C2085E162626378
:100C5000A363228B682313432383228BD023DB01DE
:100C600013432383228C01231A4392B22284218CC2
:100C700010220A43228422881A4392B22280A28838
:100C80001A4392B2A280A28A13439BB2A38270BD80
:100C90000010024000040048FFFCFFFFFFF3FFFFCD
:100CA00000040040132807D8134A938A80218B43FD
:100CB0009382124B58631DE0272808D80E4A918A68
:100CC00080230B43938214380C4B586312E03B286B
:100CD00008D8094A938A40218B4393822838074BCE
:100CE000986307E0044A918A40230B4393823C387F
:100CF000024B98637047C04600040048000400405F
:100D0000034BDB699B06FBD5014B988CC0B2704747
:100D100000380140234B9A69802189000A439A6177
:100D20005A69802189020A435A619022D2051368C8
:100D3000FF2189010B4313601B4A916A78230B43FF
:100D400093620C2804D1D36818218B43D3601AE036
:100D50000A2807D1144BDA6818218A43DA6008227E
:100D6000DA6010E0082809D10F4BDA6818218A43AD
:100D7000DA60D96810220A43DA6004E00A4AD168CE
:100D800018230B43D360084BDA688021C9010A435A
:100D9000DA60996801220A439A60034B1B68DB07FB
:100DA000FBD57047001002400024014010B50D4AE9
:100DB000D46901232343D3618023DB051885D962DD
:100DC000198880220A431A8099890122114389B225
:100DD0009981802000020449086019880A4392B270
:100DE0001A8010BD0010024000E100E000228023C4
:100DF000DB051A827047C046002243088B4274D339
:100E000003098B425FD3030A8B4244D3030B8B420B
:100E100028D3030C8B420DD3FF22090212BA030C14
:100E20008B4202D31212090265D0030B8B4219D3F5
:100E300000E0090AC30B8B4201D3CB03C01A524115
:100E4000830B8B4201D38B03C01A5241430B8B425D
:100E500001D34B03C01A5241030B8B4201D30B0346
:100E6000C01A5241C30A8B4201D3CB02C01A52416D
:100E7000830A8B4201D38B02C01A5241430A8B4230
:100E800001D34B02C01A5241030A8B4201D30B0219
:100E9000C01A5241CDD2C3098B4201D3CB01C01A33
:100EA000524183098B4201D38B01C01A524143093D
:100EB0008B4201D34B01C01A524103098B4201D32B
:100EC0000B01C01A5241C3088B4201D3CB00C01A98
:100ED000524183088B4201D38B00C01A5241430810
:100EE0008B4201D34B00C01A5241411A00D2014635
:100EF000524110467047FFE701B5002000F00CF8A2
:100F000002BDC0460029F7D003B5FFF775FF0EBC40
:0C0F10004243891A1847C0467047C0468B
:100F1C00785634122C000020000000000000000065
:100F2C00000000000102030406070809006CDC0243
:080F3C00133B000032547698CB
:04000005080000C52A
:00000001FF
